:0A22DE0000010202030304040505D9
:10191600D288C2A8C289E4F51CC203C200C202C2B0
:101926000112004675561A755700755E1A755F12D4
:1019360075541A75551C755C1A755D4675601A7571
:101946006160D2E843D82090E668E04409F090E66A
:101956005CE0443DF0E04402F0D2AF90E680E02047
:10196600E105D2041220CB90E680E054F7F0538EC6
:10197600F8C2031222C7300105120C26C201300339
:10198600F212230D50EDC2031221D320001690E669
:1019960082E030E704E020E1EF90E682E030E60402
:0C19A600E020E0E4122127121B1880C78B
:0216FD00D322F6
:100C260090E6B9E07003020CE5147003020D62242D
:100C3600FE7003020DE524FB7003020CDF14700343
:100C4600020CD9147003020CCD147003020CD324C9
:100C5600056003020E491223114003020E5590E669
:100C6600BBE024FE602714603824FD601114602761
:100C760024067050E55690E6B3F0E557803C121610
:100C8600FD503EE55E90E6B3F0E55F802DE55890B9
:100C9600E6B3F0E5598023E55A90E6B3F0E55B80CC
:100CA6001990E6BAE0FF12217EAA06A9077B01EA9F
:100CB600494B600DEE90E6B3F0EF90E6B4F0020E0D
:100CC60055020E44020E44122293020E55122301BF
:100CD600020E551222F9020E55122281020E5512EB
:100CE60023134003020E5590E6B8E0247F601514E6
:100CF600601924027063A200E43325E0FFA202E437
:100D0600334F8041E490E740F0803F90E6BCE054EA
:100D16007EFF7E00E0D394807C0040047D0180024B
:100D26007D00EC4EFEED4F24DEF58274223EF58307
:100D3600E493FF3395E0FEEF24A1FFEE34E68F82C5
:100D4600F583E0540190E740F0E4A3F090E68AF0E2
:100D560090E68B7402F0020E55020E4412231540E3
:100D660003020E5590E6B8E024FE601624026003E6
:100D7600020E5590E6BAE0B40105C200020E550215
:100D86000E4490E6BAE0705590E6BCE0547EFF7ED5
:100D960000E0D394807C0040047D0180027D00EC5D
:100DA6004EFEED4F24DEF58274223EF583E493FF7A
:100DB6003395E0FEEF24A1FFEE34E68F82F583E063
:100DC60054FEF090E6BCE05480131313541FFFE06A
:100DD600540F2F90E683F0E04420F08072805F127B
:100DE6002317506B90E6B8E024FE60192402704E7B
:100DF60090E6BAE0B40104D200805490E6BAE0640A
:100E060002604C803990E6BCE0547EFF7E00E0D361
:100E160094807C0040047D0180027D00EC4EFEED56
:100E26004F24DEF58274223EF583E493FF3395E08A
:100E3600FEEF24A1FFEE34E68F82F583800D90E667
:100E4600A080081222E8500790E6A0E04401F09046
:070E5600E6A0E04480F02259
:030033000223099C
:0423090053D8EF3284
:030003000222F1E5
:0822F100C289C2A8751C01326C
:0D003600E4F535F5367F037E20121F05220C
:101237001222D37B007A00792F7544007545087F09
:10124700087E00121FDE752D008F2EAF31E4FCFDE6
:10125700FEFBFA7901F8120AB2A804A905AA06AB9F
:1012670007E530FE7C00E4252FFFEC3EFEE4FDEBB6
:101277002FFFEA3EFEED39FDEC38FCEF2401FFE4D9
:101287003EFEE43DFDE43C8F3A8E398D38F537AFAD
:1012970035E4FCFDFEFBFA7901F8120AB2A804A9AD
:1012A70005AA06AB07E534FE7C00E42533FFEC3ED8
:1012B700FEE4FDEB2FFFEA3EFEED39FDEC38FCEFD7
:1012C7002401FFE43EFEE43DFDE43C8F3E8E3D8D70
:1012D7003CF53BE53AFFE48F2FFB7A01F9F8AE398D
:1012E700AD38AC37120B3DE48F30FBFA7901F8AF1C
:1012F7003AAE39AD38AC37120B3D8F31E4F532E5F4
:101307003EFFE48F33FB7A01F9F8AE3DAD3CAC3BD1
:10131700120B3DE48F34FBFA7901F8AF3EAE3DADD9
:101327003CAC3B120B3D8F35E4F536FB7A00792F49
:10133700F5447545087F08FE121B94752D008F2E06
:011347002283
:031DAD00011F0013
:1016D700D2B4753C057A00793C121E047B007A006F
:1016E700793C7D017C00121EB0C2B4E53C20E003CA
:0616F7007F00227F0422A7
:101E04007B007D017C008B408A4189428C438D4458
:101E1400E4FFFEC3EF9544EE95435035AB40AA4131
:101E2400A9428F828E831209CFFDE4FBFAED30E7DD
:101E340004D2B68002C2B6D2B7ED25E0FDC2B70B1C
:101E4400BB00010AEB64084A70E30FBF00010E8077
:061E5400C2C2B7C2B622B3
:101EB0008B3D8A3E893F8C408D41E4FFFEE5412405
:101EC000FFFDE54034FFFCD3EF9DEE9C5034E4FD74
:101ED000FCD2B7E54225E0FBA2B5E4334BF542C2A4
:101EE000B70DBD00010CED64084C70E5E542AB3D5B
:101EF000AA3EA93F8F828E83120A0E0FBF00010EE9
:051F000080BBC2B72206
:1022A500D2B4D2B4753C067A00793C121E04C2B48D
:1022B50022D2B4753C047B007A00793C121E06C21A
:0222C500B42241
:101C8000E4F528F527F526F5257825120BE07B40AD
:101C90007A42790F7800D3120BCF40061216D7EF95
:101CA00070E77F407E427D0F7C00AB28AA27A926E3
:101CB000A825C3120BCF40037F0222D2B475219016
:101CC000E4F522F523F524FB7A0079217D04FC124A
:101CD0001E0A7B007A0079217D02121EB0C2B4E593
:0F1CE00021B40108E522B417037F00227F0322FD
:10186E008E2D8F2ED3E52E94FFE52D940040037F11
:10187E000122E4F536F535F534F5337833120BE005
:10188E007B407A42790F7800D3120BCF40061216A6
:10189E00D7EF70E77F407E427D0F7C00AB36AA35D6
:1018AE00A934A833C3120BCF40037F02221222A504
:1018BE00E4F536F535F534F5337833120BE07B402D
:1018CE007A42790F7800D3120BCF40061216D7EF5B
:1018DE0070E77F407E427D0F7C00AB36AA35A9347F
:1018EE00A833C3120BCF40037F0222D2B4752FD878
:1018FE00852E30E4F531F532FB7A00792F7D04FC2C
:08190E00121E0AC2B47F002280
:101348008E2D8F2E8B2F8A308931E4F53BF53AF5B7
:1013580039F5387838120BE07B407A42790F7800FB
:10136800D3120BCF40061216D7EF70E77F407E42AC
:101378007D0F7C00AB3BAA3AA939A838C3120BCF22
:1013880040037F02221222A5E4F53BF53AF539F530
:10139800387838120BE07B407A42790F7800D31204
:1013A8000BCF40061216D7EF70E77F407E427D0FC5
:1013B8007C00AB3BAA3AA939A838C3120BCF40032B
:1013C8007F0222D2B4753402E51FF535E52DF536D6
:1013D800E52EF5377B007A0079347D047C00121EF7
:1013E8000AAB2FAA30A931AD33AC32121E0AC2B4EF
:1013F800E4F53BF53AF539F5387838120BE07B40DF
:101408007A42790F7800D3120BCF40061216D7EF25
:1014180070E77F407E427D0F7C00AB3BAA3AA9393A
:10142800A838C3120BCF40037F02221222B67F00D6
:011438002291
:101C0B008E2D8F2E8B2F8A308931E4F53BF53AF5EB
:101C1B0039F5387838120BE07B407A42790F78002F
:101C2B00D3120BCF40061216D7EF70E77F407E42E0
:101C3B007D0F7C00AB3BAA3AA939A838C3120BCF56
:101C4B0040037F0222D2B4753403E51FF535E52D31
:101C5B00F536E52EF5377B007A0079347D047C0070
:101C6B00121E0AAB2FAA30A931AD33AC32121EB003
:051C7B00C2B47F00224D
:10201E008F528D53AF64AE63D3E5649FE5639E40EC
:10202E0012E5649FFDE5639EFCD3ED9567EC956626
:10203E0040E622C3E5649FE5639E50DCC3EF9564E2
:0F204E00FDEE9563FCD3ED9567EC956640CA22D5
:101DB0006020E164FFF0FFF0FFFBFFF78000EFFF22
:101DC000FFFBEF10F0FFF0FFFBFFF7FFEFFFEFFF70
:101DD000FBFF80006020E18402050305020103008F
:101DE0000E0F0C07020106040A0D0B0D0A090B0861
:081DF0000C070C070A090C0F97
:102153008B2D8A2E892F7B017AE07900E4F535F502
:10216300367F047EA0121F0590E000E0FFA3E0ABE2
:0B2173002DAA2EA92FCF8FF0020A9397
:0B22D300C2B3C2B7D2B7D2B3C2B72269
:1019B2008B2F8A308931C2B312221BE532547FFE4B
:1019C200AF3312221BE4F534F535D3E5359533E513
:1019D2003495325025E53525E0FFE53433AB2FAAA7
:1019E20030A9318F82F583120A5BFFAEF012221BFF
:0D19F2000535E53570D4053480D0D2B32220
:101F05008B328A338934C2B312221BE535547FAF35
:101F1500364480FE12221BE4F537F538D3E53895B3
:101F250036E53795355020E53825E0FFE53733FEB2
:101F3500AB32E5342FF9E5333EFA1200060538E5F4
:0A1F45003870D9053780D5D2B322D9
:10221B00E4FDC2B7EE20E704C2B68002D2B6D2B755
:10222B00EF25E0FFEE33FE0DBD10E7C2B7C2B622BD
:10000600E4F539F53AFDD2B7E53A25E0F53AE539B2
:1000160033F539A2B59204C2B7A204E433423A0DCD
:0D002600BD10E3C2B7E539853AF0020A9338
:1021A900751E82E51E54EF4408F5B0E4F52DF52EB1
:1021B9007F011221F8052EE52E7002052DC3940525
:0A21C900E52D940040EA751D0F2279
:101D55008F3BE51D653B604F74017E00A83B088005
:101D650005C333CE33CED8F9FFE51D25E02464F550
:101D750082E434E1F583E05EFEA3E05F4E60047F1C
:101D85000180027F008F3C1221F8E51D25E02484A7
:101D9500F582E434E1F583E582253CF582E435837B
:081DA500F583E0F51D80AB227F
:101E5A008F2D8D2EE51D652E6005AF2E121D55E5C1
:101E6A002EB40F047F0180027F008F2FE4F533F533
:101E7A0032F531F530AF2DE4FCFDFEAB33AA32A9C1
:101E8A0031A830C3120BCF501CAF2F1221F8E53303
:101E9A002401F533E43532F532E43531F531E435F0
:061EAA0030F53080D0226B
:1021F800531E7BEF60047F0480027F00EF421EE5E0
:102208001E54EF4408F5B0431E80E51E54EF440801
:03221800F5B022FC
:1020FA00531E3BED60047E4080027E00EF60047F49
:10210A000480027F00EF4E421EE51E54EF4408F59C
:0D211A00B0431E80E51E54EF4408F5B022CE
:10205D00531E3BED60047D4080027D00EF60047FE8
:10206D000480027F00EF4D421EE51E54EF4408F53B
:10207D00B0E5B0542025E025E0FE431E80E51E545A
:08208D00EF4408F5B0AF062294
:1015FA008E2D8F2E8C2F8D308B31E4F536F5377585
:10160A003801E53270047F0280027F0A121D55E517
:10161A002EAE2D7803CEC313CE13D8F9F5378E36F6
:10162A00E52E5407FF7401A807088002C333D8FCCB
:10163A00F538E53170080530E5307002052FAB3317
:10164A00AA34A9358537828536831209CFFCE5305D
:10165A0015307002152F14452F6033E538701A754E
:10166A0038010537E53770020536AB33AA34A93598
:10167A00F5828536831209CFFCEC5401FDE4FF1292
:10168A0020FAE53825E0F538ECC313FC80C0E531D3
:10169A006027E538701A7538010537E53770020595
:1016AA0036AB33AA34A935F5828536831209CFFCC5
:1016BA00EC5401FD7F011220FAE5327007751D0115
:0D16CA007F038005751D097F0B121D552241
:100FC8008E2D8F2E8C2F8D308B31E4F536F537F53D
:100FD80038F539753A01E53270047F0280027F0ADC
:100FE800121D55E52EAE2D7803CEC313CE13D8F9B6
:100FF800F5378E36E52E5407FF7401A807088002DE
:10100800C333D8FCF53AE53170080530E530700295
:10101800052F74002539F582E434E1F583E4F0AB5B
:1010280033AA34A9358537828536831209CFFCE582
:101038003015307002152F14452F6059E53A702E7F
:10104800753A010537E537700205360539E5397017
:101058000205382400F582E434E1F583E4F0AB338B
:10106800AA34A9358537828536831209CFFCEC541A
:1010780001FDE4FF12205DEF600F74002539F58251
:10108800E434E1F583E0453AF0E53A25E0F53AEC59
:10109800C313FC809AE531604FE53A7030753A0128
:1010A8000539E539700205380537E5377002053628
:1010B80074002539F582E434E1F583E4F0AB33AA12
:1010C80034A9358537828536831209CFFCEC540163
:1010D800FD7F0112205DEF600F74002539F582E471
:1010E80034E1F583E0453AF0E5327007751D017F7C
:1010F800038005751D097F0B121D55228F468B47EE
:101108008A488949E4F54CF54DF550F5511209B670
:1011180070169000011209CFD39405500BE54B646B
:1011280002454A60037F0022AD4BE4FF12201E9067
:10113800E678E04480F0E4F54EF54FE54F454E7013
:1011480006E54654FE803EAB47AA48A9491209B6AF
:1011580070169000011209CFD39405500BE54B642B
:1011680002454A60037F0022AD4B7F0112201EAB6F
:1011780047AA48A949E54F24FFFFE54E34FF8F826F
:10118800F5831209CF90E679F0E4FFFE90E678E067
:1011980020E010BE2706BF10037F06220FBF000104
:1011A8000E80E990E678E030E2037F082290E67846
:1011B800E020E122754C00754D01E04440F090E6D6
:1011C80078E030E6F90551E5517002055090E6786F
:1011D800E04480F0800DE4F54CF54D054FE54F7087
:1011E80002054EE54D6401454C7010C3E55194105D
:1011F800E550648094A75003021143E54B2401FF96
:10120800E4354AFEEF654F7003EE654E6003021148
:1012180043E551B41008E550B427037F072290E650
:0F12280078E04440F090E678E020E6F97F00227D
:10151C008B478A488949AD0790E678E04480F0ED26
:10152C00440190E679F0E4F54CF54DD3E54D954B3F
:10153C00E54C954A40030215F0E4FFFE90E678E096
:10154C0020E010BE2706BF10037F06220FBF00014C
:10155C000E80E9C3E54D954BE54C954A501590E648
:10156C0078E020E10EE04440F090E678E030E6F9D7
:10157C007F0722E54D454C7017E54B454A700990A5
:10158C00E678E04420F0800090E679E0F54E804962
:10159C00E54B24FFFFE54A34FFFEEFB54D0CEEB5ED
:1015AC004C0890E678E044208010E54DB54B0EE5F4
:1015BC004CB54A0990E678E04440F0800090E6791A
:1015CC00E0FFAB47AA48A949E54D24FFFDE54C34A3
:1015DC00FF8D82F583EF120A0E054DE54D70020565
:0E15EC004C02153790E678E020E6F97F0022E9
:101B94008E3F8F408B418A428943E545454470021C
:101BA400FF22E5452402FFE43544FEC3EF9402EE30
:101BB40094004021AB41AA42A94374FE2FF58274DC
:101BC400FF3EF5831209CF8F828E83120A0EEF1F18
:101BD40070D91E80D6E540AB41AA42A943900001CA
:101BE400120A0EE53F541F1209FCAB41AA42A94355
:101BF400E5452402F54BE43544F54A7FA21211046D
:071C0400EF6001227F0022C6
:101FDE008B418A428943EF900001120A0EEE541F84
:101FEE001209FCAB41AA42A943754A00754B027F08
:101FFE00A2121104EF600122AB41AA42A94385440B
:10200E004A85454B7FA212151CEF6001227F0022EC
:100E5D0090E6007410F075B20A75800A00000075F6
:100E6D00B5DF75B00990E67A7401F0121C80EF6061
:100E7D0002F509D2B0E4FFFE0FBF00010EBE01F86E
:100E8D00BFF4F5C2B0E4FEFF0FBF00010EBE01F8C6
:100E9D00BFF4F5D2B0E4FEFF0FBF00010EBE01F8A6
:100EAD00BFF4F5C2B0E4FEFF0FBF00010EBE01F8A6
:100EBD00BFF4F5D2B0E4FEFF0FBF00010EBE01F886
:100ECD00BFF4F5C2B0E4FEFF0FBF00010EBE01F886
:100EDD00BFF4F57B017AE0790012215390E000E038
:100EED00FEA3E020E005EE64126003750905000025
:100EFD000090E60174E3F000000090E60B7403F03F
:100F0D0000000090E61274F8F0000000E490E61383
:100F1D00F000000090E614F000000090E615F000DF
:100F2D00000090E6047480F00000007402F00000F0
:100F3D0000E4F00000007480F00000007404F00084
:100F4D000000E4F00000007480F00000007406F072
:100F5D00000000E4F00000007480F0000000740850
:100F6D00F0000000E4F000000000000090E61874AE
:100F7D000CF0000000E490E619F000000090E61A75
:100F8D00F000000090E61BF000000090E6027408EF
:100F9D00F0000000E490E603F000000090E670F031
:100FAD0000000090E609741AF000000090E620742D
:0B0FBD0004F0000000E490E621F022A8
:101439007530007531007532277533017534E075E3
:1014490035007B007A007925E4F538F53990E6BD59
:10145900E0FE90E6BCE07C002400FFEC3E8FF01239
:101469000A9390E6BFE0FE90E6BEE02400FFEC3E62
:10147900AB30AA31A9328FF0120A93AB30AA31A945
:1014890032120A30F53B85F03A90E6B8E0644060E4
:101499000302151BD3E53B9400E53A94004073E43D
:1014A90090E68AF090E68BF090E6A0E020E1F990D2
:1014B900E68BE0753C00F53DC3953BE53C953A501C
:1014C9000FC3E53B953DF53BE53A953CF53A80057B
:1014D900E4F53AF53BE4F536F537C3E537953DE5EF
:1014E90036953C50AF74402537F582E434E7F583EF
:1014F900E0AB33AA34A935853982853883120A0EBF
:101509000539E539700205380537E53770CC0536F8
:0315190080C82265
:1017B800E52824FFFFE52734FFFE7B017AE0790066
:1017C8008E2D8F2E8B2F8A308931E4F532F533F543
:1017D80036F537052EE52E7002052DE4F532F53382
:1017E800D3E52E9400E52D9400407AD3E52E94405D
:1017F800E52D9400401475340075354074C0252ECD
:10180800F52E74FF352DF52D800B852D34852E355D
:10181800E4F52DF52EE5BA20E0FBE4FFFEC3EF95D5
:1018280035EE9534502BAB2FAA30A93185338285FC
:1018380032831209CFFD74402FF582E434E7F58333
:10184800EDF00533E533700205320FBF00010E805D
:10185800CC000000E490E68AF000000090E68BE5FA
:0618680035F00217E82232
:1000560090E6B9E064B060030209B4A3E0FF120CB5
:100066000003950203C20300DD0403F20A041C0B1D
:1000760004490C04970D09230E092F0F095910097D
:10008600841100F32001D821025722028F23011781
:1000960024013025010E2B02B42C02CF2D01502E47
:1000A600015D2F054F30063331064F32065B3305AF
:1000B600EF3406693506753608FB3706943804E8CA
:1000C60040052241016A5102F460033161036E6208
:1000D60001B380000009A57B017AE0790012215363
:1000E6007B017AE079007F017E000201D27B007AF3
:1000F60000792912003690E000E52AF07B017AE0CB
:100106007900E4FFFE0201AC121439121237020420
:10011600161214397B017AE07900753200753303C3
:100126007F037EE01219B20204167B017AE07900A1
:100136007535007536037F037EE0121F057B017A55
:10014600E079007F037E000201AC121439E4F51C4D
:10015600C289D2A8020252121439E4F51CC289C21D
:10016600A802025212143990E000E4F0A37405F0DC
:10017600A3E4F0A3740AF07B017AE07904753500F4
:100186007536017F007EA0121F057B017AE0790893
:10019600753500753601E4FFFE121F057B017AE016
:1001A60079007F0B7E001217C8E4020252E509F4BB
:1001B60090E0006008E509F07509FF8003E50AF0A4
:1001C600E4F50A7B017AE07900E4FFFE1217C80223
:1001D60009A0121439E5264525601BE5266401456C
:1001E600256013E52664034525600BE52664054571
:1001F6002560030209A5E5264525700990E000F073
:10020600A304F08034E52664014525700A90E000D9
:10021600F0A37403F08022E52664034525700A9056
:10022600E000F0A37407F08010E52664054525700C
:100236000890E000F0A3740BF07B017AE07900E40B
:10024600F532F5337F027E201219B2E4F50A02096F
:10025600A012143990E001E024FFF090E000E034B1
:10026600FFF090E003E024FFF090E002E034FFF0BE
:100276007B017AE079007532007533017F047E6078
:100286001219B2E4F50A0209A090E0007404F0A382
:100296007410F0A37406F0A37410F07B017AE07971
:1002A600007F037E001217C8E4F50A0209A01214A3
:1002B600397B017AE07900E4F532F5337F047E205C
:1002C6001219B2E4F50A0209A07B017AE07900E48A
:1002D600F535F5367F047E20121F057B017AE0791D
:1002E600007F017E001217C8E4F50A0209A0121465
:1002F60039E526AE257802C333CE33CED8F92400AD
:10030600F524EE3404F5237B017AE07900E527C372
:1003160013FEE5281324FFF533EE34FFF532AF2440
:10032600AE231219B2E4F50A0209A0121439E52621
:10033600AE257803C333CE33CED8F92400F524EEA8
:100346003410F5237B017AE07900E527C313FEE537
:10035600281324FFF533EE34FFF532AF24AE231213
:1003660019B2E4F50A0209A012143990E000E4F08B
:10037600A304F0752700F528FB7AE07900E4F5324E
:10038600F5337F027E201219B2E4F50A0209A012A3
:1003960014398525238526247B017AE07900E52713
:1003A600C313FEE5281324FFF533EE34FFF532AF11
:1003B60024AE231219B2E4F50A0209A012143985F3
:1003C60025238526247B017AE07900E527C313FEE1
:1003D600E5281324FFF536EE34FFF535AF24AE23BA
:1003E600121F051217B8E4F50A0209A0121439857E
:1003F60025238526247B017AE079008527448528F4
:1004060045AF24AE23121B948F22EF600302099995
:10041600E4F50A0209A01214398525238526247BD2
:10042600017AE07900852744852845AF24AE23125A
:100436001FDE8F22EF60030209991217B8E4F50A4E
:100446000209A0121439852523852624C3E52494A0
:1004560020E52394004013E5242528FFE5233527CE
:10046600FED3EF94FFEE941F4006750A01E4F521D2
:100476007B017AE07900852744852845AF24AE23A1
:10048600121B948F22EF6003020999E4F50A020910
:10049600A0121439852523852624C3E5249420E556
:1004A6002394004013E5242528FFE5233527FED3B2
:1004B600EF94FFEE941F4006750A01E4F5217B01D7
:1004C6007AE07900852744852845AF24AE23121F9C
:1004D600DE8F22EF60030209991217B8E4F50A02CB
:1004E60009A01214397B017AE0790075440075453C
:1004F600087F087E00121FDEEF60047F0180027F06
:10050600008F22EF60030209997B017AE079007F70
:10051600077E001217C8E4F50A0209A0121439E48E
:1005260090E000F0A3F0A3F0A3F07B017AE079005D
:10053600F5447545047F0CFE121B948F22EF600371
:10054600020999E4F50A0209A012143990E000E0C4
:10055600F50DA3E0F50EA3E0F516A3E0F517A3E06D
:10056600FEA3E0750B00F50CEE750F00F510E52601
:10057600F518E525F513E5106402450F703BAB0C45
:10058600753201F5337534007535187D08FCFFFEAC
:100596001215FAAB0CE4F5327533017534E0753596
:1005A60006AD17AC16AF0EAE0D1215FA7D0CAF13D5
:1005B600121E5AE4F50A0209A0E510450F6008E587
:1005C600106401450F701FAB0C8510327533017531
:1005D60034E0753506AD17AC16AF0EAE0D1215FA32
:1005E600E4F50A0209A00209A512143990E000E018
:1005F600F50DA3E0F50EA3E0F516A3E0F517A3E0CD
:10060600FEA3E0750B00F50CEE750F00F510AB0CB4
:100616008510327533017534E0753506AD17AC16A5
:10062600AF0EAE0D120FC8E4F50A0209A012143976
:10063600E52824FFFFE52734FFFE7B017AE17900F8
:100646001217C8E4F50A0209A01214391221A9E406
:10065600F50A0209A0121439AF26121D55E4F50A4F
:100666000209A012143985261DE4F50A0209A01212
:10067600143990E000E0FEA3E0752900F52AEEF5B6
:1006860019AD2AAF19121E5AE4F50A0209A012146E
:1006960039E4F514F51585251A85261BF50A752105
:1006A60001D3E51B9400E51A940050030209ABE55B
:1006B6000A60030209ABE51B151B7002151AE51546
:1006C60025E0FFE51433FE74002FF58274E03EF555
:1006D60083E0F52BA3E0F52C6430452B600302077D
:1006E60092E51525E0FFE51433FE74022FF58274BA
:1006F600E03EF583E0F50DA3E0F50E74042FF582D8
:1007060074E03EF583E0F516A3E0F51774062FF5C1
:100716008274E03EF583E0FEA3E0750B00F50CEE77
:10072600F510750F00AB0CF532E51525E0FFE51465
:1007360033FE74082FF974E03E753301F5348935BC
:10074600AD17AC16AF0EAE0D1215FAE517540770BD
:1007560010E517AE167803CEC313CE13D8F9FF8073
:1007660013E517AE167803CEC313CE13D8F92401BA
:10077600FFE43EFE8E118F12E51220E003020844CC
:10078600E5122401FFE43511FE020844E52C643429
:10079600452B6003020864E51525E0FFE51433FEEA
:1007A60074022FF58274E03EF583E0F50DA3E0F5C3
:1007B6000E74042FF58274E03EF583E0F516A3E08F
:1007C600F51774062FF58274E03EF583E0FEA3E08C
:1007D600750B00F50CEEF510750F00AB0CF532E558
:1007E6001525E0FFE51433FE74082FF974E03E7515
:1007F6003301F5348935AD17AC16AF0EAE0D120FB9
:10080600C8E51754077010E517AE167803CEC31364
:10081600CE13D8F9FF8013E517AE167803CEC313AF
:10082600CE13D8F92401FFE43EFE8E118F12E51295
:1008360020E0028009E5122401FFE43511FE8E1145
:100846008F12E511C313FEE51213FFE5152404CD3F
:10085600E43514CD2FF515ED3EF5140206A7E52C6B
:100866006432452B700E1221A90515E51570020597
:10087600140206A7E52C6433452B701BE51525E00D
:10088600FFE51433FE74022FF58274E03EF583A370
:10089600E0FF121D558047E52C6435452B7019E5A0
:1008A6001525E0FFE51433FE74022FF58274E03E51
:1008B600F583A3E0F51D8026E52C6436452B702CC8
:1008C600E51525E0FFE51433FE74022FF58274E08A
:1008D6003EF583E0FCA3E0FDECFFED121E5A740228
:1008E6002515F515E43514F5140206A7750A01E475
:1008F600F5210206A7121439745590E000F0A3F012
:10090600A3F0A3F0A3F0A3F0A3F0A3F0A3F0A3F049
:10091600A3F0A3F01217B8E4F50A0209A0121439DD
:1009260085261FE4F50A0209A012143985252385B8
:1009360026247B017AE07900852732852833AF2487
:10094600AE231213488F22EF6003020999E4F50AD9
:100956000209A01214398525238526247B017AE015
:100966007900852732852833AF24AE23121C0B8FDE
:1009760022EF6002801D1217B8E4F50A801C1214DB
:1009860039852523852624AF24AE2312186E8F229F
:10099600EF6004F50A800BE4F50A752101800675FF
:1009A6000A01E4F521E521B40102D322C322C322C0
:0B1DF8000263000002660008016201A7
:0D004600120E5D90E605E054FDF0D20022A0
:0C22C700E51CB40106E4F51C12123722DD
:04230D00C283D32292
:101B1800D283E4FFFE0FBF00010EBE03F8BFE8F555
:101B2800D2B0E4FEFF0FBF00010EBE03F8BFE8F518
:101B3800C2B0E4FEFF0FBF00010EBE03F8BFE8F518
:101B480000000090E6047480F00000007402F000C9
:101B58000000E4F00000007480F00000007404F05D
:101B6800000000E4F00000007480F000000074063B
:101B7800F0000000E4F00000007480F00000007441
:0C1B880008F0000000E4F0000000D32290
:02231100D322D5
:0822F90090E6BAE0F568D3227B
:1022810090E740E568F0E490E68AF090E68B04F090
:02229100D32256
:0823010090E6BAE0F565D32275
:1022930090E740E565F0E490E68AF090E68B04F081
:0222A300D32244
:06231300D322D322D322E5
:0922E8001200564002D322C32269
:10223B00C0E0C083C082D2015391EF90E65D740180
:08224B00F0D082D083D0E03214
:10226B00C0E0C083C0825391EF90E65D7404F0D060
:06227B0082D083D0E032A6
:101F4F00C0E0C083C082C0D0E56445637005756290
:101F5F0001800DE564B4FF08E563B4FF037562000B
:101F6F00E562B4010A0564E564700C05638008E559
:101F7F00641564700215635391EF90E65D7402F07F
:091F8F00D0D0D082D083D0E03222
:10209500C0E0C083C082855C58855D5985598285BD
:1020A5005883A37402F085545A85555B855B8285F8
:1020B5005A83A37407F05391EF90E65D7410F0D046
:0620C50082D083D0E0325E
:10225300C0E0C083C082D2035391EF90E65D74085F
:08226300F0D082D083D0E032FC
:101CEF00C0E0C083C08290E680E030E74985545859
:101CFF00855559756600756740855982855883A348
:101D0F007402F0855C5A855D5B855B82855A83A37F
:101D1F007407F000000090E6207404F000000090BB
:101D2F00E621E4F000000090E6307498F000000027
:101D3F0090E6317464F05391EF90E65D7420F0D02B
:061D4F0082D083D0E032D7
:0116FF0032B8
:0119FF0032B5
:102319003232323232323232323232323232323294
:102329003232323232323232323232323232323284
:0223390032323E
:101A000012010002000000402853202000000102C3
:101A100000010A060002000000400100090229003E
:101A200001010080FA0904000001FFFFFF00070523
:101A300082034000010904000101FFFFFF000705C8
:101A40008203000401000902190001010080FA0963
:101A500004000001FF0000000705820340000100B0
:101A60000403090414034600610069007200630066
:101A7000680069006C0064001203470045004E00D6
:0C1A800044004500580020004900000010
:03004300021700A1
:0300530002170091
:1017000002223B00021F4F0002226B000222530004
:1017100002209500021CEF000216FF000219FF00D4
:101720000223190002231A0002231B0002231C00BB
:1017300002231D0002231E0002231F00022320009B
:10174000022321000219FF000223220002232300AA
:10175000022324000223250002232600022327005F
:10176000022328000219FF000219FF000219FF00DE
:101770000223290002232A0002232B0002232C002B
:1017800002232D0002232E0002232F00022330000B
:1017900002233100022332000223330002233400EB
:1017A00002233500022336000223370002233800CB
:0817B0000223390002233A0074
:1021270090E682E030E004E020E60B90E682E030C3
:10213700E119E030E71590E680E04401F07F147E76
:0C21470000121F9890E680E054FEF02289
:1020CB0030040990E680E0440AF0800790E680E057
:1020DB004408F07FDC7E05121F9890E65D74FFF0DC
:0F20EB0090E65FF05391EF90E680E054F7F0221B
:10217E00A907AE60AF618F828E83A3E064037017F0
:10218E00AD0119ED7001228F828E83E07C002FFD50
:0B219E00EC3EFEAF0580DFE4FEFF22F8
:1021D30090E682E044C0F090E681F043870100007E
:0421E30000000022D6
:101F98008E218F2290E600E054187012E522240169
:101FA800FFE43521C313F521EF13F522801590E6E0
:101FB80000E05418FFBF100BE52225E0F522E521CB
:101FC80033F521E5221522AE21700215214E600558
:061FD8001221E780EE2259
:1021E7007400F58690FDA57C05A3E582458370F90B
:0121F70022C5
:03000000021A8C55
:0C1A8C00787FE4F6D8FD758168021AD35B
:1009B600BB010689828A83E0225002E722BBFE023F
:1009C600E32289828A83E49322BB010CE58229F51E
:1009D60082E5833AF583E0225006E92582F8E6228D
:1009E600BBFE06E92582F8E222E58229F582E58347
:1009F6003AF583E49322BB010689828A83F022506A
:100A060002F722BBFE01F322F8BB010DE58229F5B0
:100A160082E5833AF583E8F0225006E92582C8F696
:100A260022BBFE05E92582C8F222BB010A89828A19
:100A360083E0F5F0A3E022500687F009E71922BB10
:100A4600FE07E3F5F009E3192289828A83E493F528
:100A5600F074019322BB0110E58229F582E5833A01
:100A6600F583E0F5F0A3E0225009E92582F886F047
:100A760008E622BBFE0AE92582F8E2F5F008E22242
:100A8600E5832AF583E993F5F0A3E99322BB010AEE
:100A960089828A83F0E5F0A3F0225006F709A7F0D1
:100AA6001922BBFE06F3E5F009F31922E88FF0A43C
:100AB600CC8BF0A42CFCE98EF0A42CFC8AF0EDA4DF
:100AC6002CFCEA8EF0A4CDA8F08BF0A42DCC382512
:100AD600F0FDE98FF0A42CCD35F0FCEB8EF0A4FEF2
:100AE600A9F0EB8FF0A4CFC5F02ECD39FEE43CFC87
:100AF600EAA42DCE35F0FDE43CFC2275F0087582A3
:100B060000EF2FFFEE33FECD33CDCC33CCC5823391
:100B1600C5829BED9AEC99E58298400CF582EE9B96
:100B2600FEED9AFDEC99FC0FD5F0D6E4CEFBE4CDB4
:100B3600FAE4CCF9A88222B800C1B90059BA002D4E
:100B4600EC8BF084CFCECDFCE5F0CBF97818EF2F07
:100B5600FFEE33FEED33FDEC33FCEB33FB10D70336
:100B6600994004EB99FB0FD8E5E4F9FA227818EFDF
:100B76002FFFEE33FEED33FDEC33FCC933C910D73E
:100B8600059BE99A4007EC9BFCE99AF90FD8E0E44B
:100B9600C9FAE4CCFB2275F010EF2FFFEE33FEED21
:100BA60033FDCC33CCC833C810D7079BEC9AE899F1
:100BB600400AED9BFDEC9AFCE899F80FD5F0DAE4D3
:100BC600CDFBE4CCFAE4C8F922EB9FF5F0EA9E42AD
:100BD600F0E99D42F0E89C45F0227401FF3395E070
:100BE600FEFDFC080808E6CF2FF618E6CE3EF618FE
:100BF600E6CD3DF618E6CC3CF622D083D082F8E46A
:100C0600937012740193700DA3A393F8740193F576
:100C1600828883E4737402936860EFA3A3A380DFE2
:101A9800021916E493A3F8E493A34003F68001F235
:101AA80008DFF48029E493A3F85407240CC8C3334F
:101AB800C4540F4420C8834004F456800146F6DF1E
:101AC800E4800B0102040810204080901DADE47EE4
:101AD800019360BCA3FF543F30E509541FFEE49313
:101AE800A360010ECF54C025E060A840B8E493A3DA
:101AF800FAE493A3F8E493A3C8C582C8CAC583CA05
:101B0800F0A3C8C582C8CAC583CADFE9DEE780BEBC
:011E030000DE
:00000001FF
