:0A22C60000010202030304040505F1
:10191600D288C2A8C289E4F51CC203C200C202C2B0
:101926000112004675561B755700755E1B755F12D2
:1019360075541B75551C755C1B755D3675601B757E
:101946006150D2E843D82090E668E04409F090E67A
:101956005CE0443DF0E04402F0D2AF90E680E02047
:10196600E105D2041216CC90E680E054F7F0538ECF
:10197600F8C2031222AF300105120C09C20130036E
:10198600F21222F150EDC2031221BB20001690E69E
:1019960082E030E704E020E1EF90E682E030E60402
:0C19A600E020E0E41220E9121A3E80C7A5
:0222F500D322F2
:100C090090E6B9E07003020CC8147003020D452484
:100C1900FE7003020DC824FB7003020CC21470039A
:100C2900020CBC147003020CB0147003020CB6243D
:100C3900056003020E2C1222F74003020E3890E6DB
:100C4900BBE024FE602714603824FD60111460277E
:100C590024067050E55690E6B3F0E557803C122221
:100C6900F5503EE55E90E6B3F0E55F802DE55890DE
:100C7900E6B3F0E5598023E55A90E6B3F0E55B80E9
:100C89001990E6BAE0FF122140AA06A9077B01EAFA
:100C9900494B600DEE90E6B3F0EF90E6B4F0020E2A
:100CA90038020E27020E2712227B020E381222E981
:100CB900020E381222E1020E38122269020E38128F
:100CC90022F94003020E3890E6B8E0247F6015143B
:100CD900601924027063A200E43325E0FFA202E454
:100CE900334F8041E490E740F0803F90E6BCE05408
:100CF9007EFF7E00E0D394807C0040047D01800269
:100D09007D00EC4EFEED4F24C6F58274223EF5833C
:100D1900E493FF3395E0FEEF24A1FFEE34E68F82E2
:100D2900F583E0540190E740F0E4A3F090E68AF0FF
:100D390090E68B7402F0020E38020E271222FB4055
:100D490003020E3890E6B8E024FE60162402600320
:100D5900020E3890E6BAE0B40105C200020E38026C
:100D69000E2790E6BAE0705590E6BCE0547EFF7E0F
:100D790000E0D394807C0040047D0180027D00EC7A
:100D89004EFEED4F24C6F58274223EF583E493FFAF
:100D99003395E0FEEF24A1FFEE34E68F82F583E080
:100DA90054FEF090E6BCE05480131313541FFFE087
:100DB900540F2F90E683F0E04420F08072805F1298
:100DC90022FD506B90E6B8E024FE60192402704EB3
:100DD90090E6BAE0B40104D200805490E6BAE06427
:100DE90002604C803990E6BCE0547EFF7E00E0D37F
:100DF90094807C0040047D0180027D00EC4EFEED74
:100E09004F24C6F58274223EF583E493FF3395E0BF
:100E1900FEEF24A1FFEE34E68F82F583800D90E684
:100E2900A080081222D0500790E6A0E04401F0907B
:070E3900E6A0E04480F02276
:030033000216FBB7
:0416FB0053D8EF329F
:030003000222D9FD
:0822D900C289C2A8751C013284
:0D003600E4F535F5367F037E20121F3C22D5
:10122C001222BB7B007A00792F7544007545087F2C
:10123C00087E00121FCF752D008F2EAF31E4FCFD00
:10124C00FEFBFA7901F8120A95A804A905AA06ABC7
:10125C0007E530FE7C00E4252FFFEC3EFEE4FDEBC1
:10126C002FFFEA3EFEED39FDEC38FCEF2401FFE4E4
:10127C003EFEE43DFDE43C8F3A8E398D38F537AFB8
:10128C0035E4FCFDFEFBFA7901F8120A95A804A9D5
:10129C0005AA06AB07E534FE7C00E42533FFEC3EE3
:1012AC00FEE4FDEB2FFFEA3EFEED39FDEC38FCEFE2
:1012BC002401FFE43EFEE43DFDE43C8F3E8E3D8D7B
:1012CC003CF53BE53AFFE48F2FFB7A01F9F8AE3998
:1012DC00AD38AC37120B20E48F30FBFA7901F8AF44
:1012EC003AAE39AD38AC37120B208F31E4F532E51C
:1012FC003EFFE48F33FB7A01F9F8AE3DAD3CAC3BDD
:10130C00120B20E48F34FBFA7901F8AF3EAE3DAD01
:10131C003CAC3B120B208F35E4F536FB7A00792F71
:10132C00F5447545087F08FE121B7E752D008F2E27
:01133C00228E
:031D9700011F0029
:10219500D2B4753C057A00793C121DEE7B007A00BD
:1021A500793C7D017C00121E9AC2B4E53C20E00317
:0621B5007F00227F0422DE
:101DEE007B007D017C008B408A4189428C438D446F
:101DFE00E4FFFEC3EF9544EE95435035AB40AA4148
:101E0E00A9428F828E831209B2FDE4FBFAED30E710
:101E1E0004D2B68002C2B6D2B7ED25E0FDC2B70B32
:101E2E00BB00010AEB64084A70E30FBF00010E808D
:061E3E00C2C2B7C2B622C9
:101E9A008B3D8A3E893F8C408D41E4FFFEE541241B
:101EAA00FFFDE54034FFFCD3EF9DEE9C5034E4FD8A
:101EBA00FCD2B7E54225E0FBA2B5E4334BF542C2BA
:101ECA00B70DBD00010CED64084C70E5E542AB3D71
:101EDA00AA3EA93F8F828E831209F10FBF00010E1D
:051EEA0080BBC2B7221D
:10228D00D2B4D2B4753C067A00793C121DEEC2B4BC
:10229D0022D2B4753C047B007A00793C121DF0C249
:0222AD00B42259
:101C6A00E4F528F527F526F5257825120BC37B40E0
:101C7A007A42790F7800D3120BB24006122195EFFF
:101C8A0070E77F407E427D0F7C00AB28AA27A926F9
:101C9A00A825C3120BB240037F0222D2B475219049
:101CAA00E4F522F523F524FB7A0079217D04FC1260
:101CBA001DF47B007A0079217D02121E9AC2B4E5D6
:0F1CCA0021B40108E522B417037F00227F032213
:10186E008E2D8F2ED3E52E94FFE52D940040037F11
:10187E000122E4F536F535F534F5337833120BC322
:10188E007B407A42790F7800D3120BB240061221B8
:10189E0095EF70E77F407E427D0F7C00AB36AA3518
:1018AE00A934A833C3120BB240037F022212228D39
:1018BE00E4F536F535F534F5337833120BC37B404A
:1018CE007A42790F7800D3120BB24006122195EFAF
:1018DE0070E77F407E427D0F7C00AB36AA35A9347F
:1018EE00A833C3120BB240037F0222D2B4752FD895
:1018FE00852E30E4F531F532FB7A00792F7D04FC2C
:08190E00121DF4C2B47F002297
:10133D008E2D8F2E8B2F8A308931E4F53BF53AF5C2
:10134D0039F5387838120BC37B407A42790F780023
:10135D00D3120BB24006122195EF70E77F407E420B
:10136D007D0F7C00AB3BAA3AA939A838C3120BB24A
:10137D0040037F022212228DE4F53BF53AF539F553
:10138D00387838120BC37B407A42790F7800D3122C
:10139D000BB24006122195EF70E77F407E427D0F24
:1013AD007C00AB3BAA3AA939A838C3120BB2400353
:1013BD007F0222D2B4753402E51FF535E52DF536E1
:1013CD00E52EF5377B007A0079347D047C00121D03
:1013DD00F4AB2FAA30A931AD33AC32121DF4C2B427
:1013ED00E4F53BF53AF539F5387838120BC37B4007
:1013FD007A42790F7800D3120BB24006122195EF85
:10140D0070E77F407E427D0F7C00AB3BAA3AA93945
:10141D00A838C3120BB240037F022212229E7F0016
:01142D00229C
:101BF5008E2D8F2E8B2F8A308931E4F53BF53AF502
:101C050039F5387838120BC37B407A42790F780062
:101C1500D3120BB24006122195EF70E77F407E424A
:101C25007D0F7C00AB3BAA3AA939A838C3120BB289
:101C350040037F0222D2B4753403E51FF535E52D47
:101C4500F536E52EF5377B007A0079347D047C0086
:101C5500121DF4AB2FAA30A931AD33AC32121E9A46
:051C6500C2B47F002263
:10200F008F528D53AF64AE63D3E5649FE5639E40FB
:10201F0012E5649FFDE5639EFCD3ED9567EC956635
:10202F0040E622C3E5649FE5639E50DCC3EF9564F1
:0F203F00FDEE9563FCD3ED9567EC956640CA22E4
:101D9A006020E164FFF0FFF0FFFBFFF78000EFFF38
:101DAA00FFFBEF10F0FFF0FFFBFFF7FFEFFFEFFF86
:101DBA00FBFF80006020E1840205030502010300A5
:101DCA000E0F0C07020106040A0D0B0D0A090B0877
:081DDA000C070C070A090C0FAD
:102115008B2D8A2E892F7B017AE07900E4F535F540
:10212500367F047EA0121F3C90E000E0FFA3E0ABE9
:0B2135002DAA2EA92FCF8FF0020A76F2
:0B22BB00C2B3C2B7D2B7D2B3C2B72281
:101EEF008B2F8A308931C2B3122203E532547FFE21
:101EFF00AF33122203E4F534F535D3E5359533E5E9
:101F0F003495325025E53525E0FFE53433AB2FAA64
:101F1F0030A9318F82F583120A3EFFAEF0122203F1
:101F2F000535E53570D4053480D0D2B3228B328A93
:101F3F00338934C2B3122203E535547FAF36448060
:101F4F00FE122203E4F537F538D3E5389536E53739
:101F5F0095355020E53825E0FFE53733FEAB32E508
:101F6F00342FF9E5333EFA1200060538E53870D9FB
:071F7F00053780D5D2B32223
:10220300E4FDC2B7EE20E704C2B68002D2B6D2B76D
:10221300EF25E0FFEE33FE0DBD10E7C2B7C2B622D5
:10000600E4F539F53AFDD2B7E53A25E0F53AE539B2
:1000160033F539A2B59204C2B7A204E433423A0DCD
:0D002600BD10E3C2B7E539853AF0020A7655
:10216B00751E82E51E54EF4408F5B0E4F52DF52EEF
:10217B007F011221E0052EE52E7002052DC394057B
:0A218B00E52D940040EA751D0F22B7
:101D3F008F3BE51D653B604F74017E00A83B08801B
:101D4F0005C333CE33CED8F9FFE51D25E02464F566
:101D5F0082E434E1F583E05EFEA3E05F4E60047F32
:101D6F000180027F008F3C1221E0E51D25E02484D5
:101D7F00F582E434E1F583E582253CF582E4358391
:081D8F00F583E0F51D80AB2295
:101E44008F2D8D2EE51D652E6005AF2E121D3FE5ED
:101E54002EB40F047F0180027F008F2FE4F533F549
:101E640032F531F530AF2DE4FCFDFEAB33AA32A9D7
:101E740031A830C3120BB2501CAF2F1221E0E5334E
:101E84002401F533E43532F532E43531F531E43506
:061E940030F53080D02281
:1021E000531E7BEF60047F0480027F00EF421EE5F8
:1021F0001E54EF4408F5B0431E80E51E54EF44081A
:03220000F5B02214
:1020BC00531E3BED60047E4080027E00EF60047F87
:1020CC000480027F00EF4E421EE51E54EF4408F5DB
:0D20DC00B0431E80E51E54EF4408F5B0220D
:10204E00531E3BED60047D4080027D00EF60047FF7
:10205E000480027F00EF4D421EE51E54EF4408F54A
:10206E00B0E5B0542025E025E0FE431E80E51E5469
:08207E00EF4408F5B0AF0622A3
:1015EF008E2D8F2E8C2F8D308B31E4F536F5377590
:1015FF003801E53270047F0280027F0A121D3FE539
:10160F002EAE2D7803CEC313CE13D8F9F5378E3601
:10161F00E52E5407FF7401A807088002C333D8FCD6
:10162F00F538E53170080530E5307002052FAB3322
:10163F00AA34A9358537828536831209B2FCE53085
:10164F0015307002152F14452F6033E538701A7559
:10165F0038010537E53770020536AB33AA34A935A3
:10166F00F5828536831209B2FCEC5401FDE4FF12BA
:10167F0020BCE53825E0F538ECC313FC80C0E5311C
:10168F006027E538701A7538010537E537700205A0
:10169F0036AB33AA34A935F5828536831209B2FCED
:1016AF00EC5401FD7F011220BCE5327007751D015E
:0D16BF007F038005751D097F0B121D3F2262
:100FBD008E2D8F2E8C2F8D308B31E4F536F537F548
:100FCD0038F539753A01E53270047F0280027F0AE7
:100FDD00121D3FE52EAE2D7803CEC313CE13D8F9D7
:100FED00F5378E36E52E5407FF7401A807088002E9
:100FFD00C333D8FCF53AE53170080530E5307002A1
:10100D00052F74002539F582E434E1F583E4F0AB66
:10101D0033AA34A9358537828536831209B2FCE5AA
:10102D003015307002152F14452F6059E53A702E8A
:10103D00753A010537E537700205360539E5397022
:10104D000205382400F582E434E1F583E4F0AB3396
:10105D00AA34A9358537828536831209B2FCEC5442
:10106D0001FDE4FF12204EEF600F74002539F5826B
:10107D00E434E1F583E0453AF0E53A25E0F53AEC64
:10108D00C313FC809AE531604FE53A7030753A0133
:10109D000539E539700205380537E5377002053633
:1010AD0074002539F582E434E1F583E4F0AB33AA1D
:1010BD0034A9358537828536831209B2FCEC54018B
:1010CD00FD7F0112204EEF600F74002539F582E48B
:1010DD0034E1F583E0453AF0E5327007751D017F87
:1010ED00038005751D097F0B121D3F228F468B470F
:1010FD008A488949E4F54CF54DF550F55112099999
:10110D0070169000011209B2D39405500BE54B6493
:10111D0002454A60037F0022AD4BE4FF12200F9081
:10112D00E678E04480F0E4F54EF54FE54F454E701E
:10113D0006E54654FE803EAB47AA48A949120999D7
:10114D0070169000011209B2D39405500BE54B6453
:10115D0002454A60037F0022AD4B7F0112200FAB89
:10116D0047AA48A949E54F24FFFFE54E34FF8F827A
:10117D00F5831209B290E679F0E4FFFE90E678E08F
:10118D0020E010BE2706BF10037F06220FBF00010F
:10119D000E80E990E678E030E2037F082290E67851
:1011AD00E020E122754C00754D01E04440F090E6E1
:1011BD0078E030E6F90551E5517002055090E6787A
:1011CD00E04480F0800DE4F54CF54D054FE54F7092
:1011DD0002054EE54D6401454C7010C3E551941068
:1011ED00E550648094A75003021138E54B2401FFAC
:1011FD00E4354AFEEF654F7003EE654E6003021154
:10120D0038E551B41008E550B427037F072290E666
:0F121D0078E04440F090E678E020E6F97F002288
:101511008B478A488949AD0790E678E04480F0ED31
:10152100440190E679F0E4F54CF54DD3E54D954B4A
:10153100E54C954A40030215E5E4FFFE90E678E0AC
:1015410020E010BE2706BF10037F06220FBF000157
:101551000E80E9C3E54D954BE54C954A501590E653
:1015610078E020E10EE04440F090E678E030E6F9E2
:101571007F0722E54D454C7017E54B454A700990B0
:10158100E678E04420F0800090E679E0F54E80496D
:10159100E54B24FFFFE54A34FFFEEFB54D0CEEB5F8
:1015A1004C0890E678E044208010E54DB54B0EE5FF
:1015B1004CB54A0990E678E04440F0800090E67925
:1015C100E0FFAB47AA48A949E54D24FFFDE54C34AE
:1015D100FF8D82F583EF1209F1054DE54D7002058E
:0E15E1004C02152C90E678E020E6F97F0022FF
:101B7E008E3F8F408B418A428943E5454544700232
:101B8E00FF22E5452402FFE43544FEC3EF9402EE46
:101B9E0094004021AB41AA42A94374FE2FF58274F2
:101BAE00FF3EF5831209B28F828E831209F1EF1F69
:101BBE0070D91E80D6E540AB41AA42A943900001E0
:101BCE001209F1E53F541F1209DFAB41AA42A943A6
:101BDE00E5452402F54BE43544F54A7FA21210F98F
:071BEE00EF6001227F0022DD
:101FCF008B418A428943EF9000011209F1EE541FB1
:101FDF001209DFAB41AA42A943754A00754B027F34
:101FEF00A21210F9EF600122AB41AA42A943854426
:101FFF004A85454B7FA2121511EF6001227F002207
:100E400090E6007410F075B20A75800A0000007513
:100E5000B5DF75B00990E67A7401F0121C6AEF6094
:100E600002F509D2B0E4FFFE0FBF00010EBE01F88B
:100E7000BFF4F5C2B0E4FEFF0FBF00010EBE01F8E3
:100E8000BFF4F5D2B0E4FEFF0FBF00010EBE01F8C3
:100E9000BFF4F5C2B0E4FEFF0FBF00010EBE01F8C3
:100EA000BFF4F5D2B0E4FEFF0FBF00010EBE01F8A3
:100EB000BFF4F5C2B0E4FEFF0FBF00010EBE01F8A3
:100EC000BFF4F57B017AE0790012211590E000E093
:100ED000FEA3E020E005EE64126003750905000042
:100EE0000090E60174E3F000000090E60B7403F05C
:100EF00000000090E61274E0F0000000E490E613B9
:100F0000F000000090E614F000000090E615F000FC
:100F1000000090E6047480F00000007402F000000D
:100F200000E4F00000007480F00000007404F000A1
:100F30000000E4F00000007480F00000007406F08F
:100F4000000000E4F00000007480F000000074086D
:100F5000F0000000E4F000000000000090E61874CB
:100F60000CF0000000E490E619F000000090E61A92
:100F7000F000000090E61BF000000090E602740410
:100F8000F0000000E490E603F000000090E670F04E
:100F900000000090E6097418F0000000E490E620DC
:100FA000F000000090E6217440F000000090E63070
:0D0FB0007480F000000090E63174C0F02263
:10142E007530007531007532277533017534E075EE
:10143E0035007B007A007925E4F538F53990E6BD64
:10144E00E0FE90E6BCE07C002400FFEC3E8FF01244
:10145E000A7690E6BFE0FE90E6BEE02400FFEC3E8A
:10146E00AB30AA31A9328FF0120A76AB30AA31A96D
:10147E0032120A13F53B85F03A90E6B8E06440600C
:10148E0003021510D3E53B9400E53A94004073E453
:10149E0090E68AF090E68BF090E6A0E020E1F990DD
:1014AE00E68BE0753C00F53DC3953BE53C953A5027
:1014BE000FC3E53B953DF53BE53A953CF53A800586
:1014CE00E4F53AF53BE4F536F537C3E537953DE5FA
:1014DE0036953C50AF74402537F582E434E7F583FA
:1014EE00E0AB33AA34A9358539828538831209F1E8
:1014FE000539E539700205380537E53770CC053604
:03150E0080C82270
:1017B800E52824FFFFE52734FFFE7B017AE0790066
:1017C8008E2D8F2E8B2F8A308931E4F532F533F543
:1017D80036F537052EE52E7002052DE4F532F53382
:1017E800D3E52E9400E52D9400407AD3E52E94405D
:1017F800E52D9400401475340075354074C0252ECD
:10180800F52E74FF352DF52D800B852D34852E355D
:10181800E4F52DF52EE5BA20E0FBE4FFFEC3EF95D5
:1018280035EE9534502BAB2FAA30A93185338285FC
:1018380032831209B2FD74402FF582E434E7F58350
:10184800EDF00533E533700205320FBF00010E805D
:10185800CC000000E490E68AF000000090E68BE5FA
:0618680035F00217E82232
:1000560090E6B9E064B06003020997A3E0FF120BD3
:10006600E303780203A50300DD0403D50A03FF0BAF
:10007600042C0C047A0D09060E09120F093C10090E
:10008600671100F32001D721021D22025523011713
:1000960024013025010E2B02972C02B22D01502E81
:1000A600015D2F053230061631063232063E330523
:1000B600D234064C3506583608DE3706773804CB78
:1000C60040050541016A5102D7600314610351627C
:1000D60001B280000009887B017AE07900122115BF
:1000E6007B017AE079007F017E000201D17B007AF4
:1000F60000792912003690E000E52AF07B017AE0CB
:100106007900E4FFFE0201AC12142E12122C020337
:10011600F912142E7B017AE07900753200753303EB
:100126007F037EE0121EEF0203F97B017AE079007D
:100136007535007536037F037EE0121F3C7B017A1E
:10014600E079007F037E000201AC12142EE4F51C58
:10015600C289D2A802021812142EE4F51CC289C262
:10016600A802021812142E90E000E4F0A37405F021
:10017600A3E4F0A3740AF07B017AE07904753500F4
:100186007536017F007EA0121F3C7B017AE079085C
:10019600753500753601E4FFFE121F3C7B017AE0DF
:1001A60079007F0B7E001217C8E48066E509F4909B
:1001B600E0006008E509F07509FF8003E50AF0E450
:1001C600F50A7B017AE07900E4FFFE1217C80209FE
:1001D6008312142EE5264525601BE5266401452578
:1001E6006013E52664034525600BE5266405452571
:1001F600600302098890E000E525F0A3E526F07B80
:10020600017AE07900E4F532F5337F027E40121E72
:10021600EFE4F50A02098312142E90E001E024FFB0
:10022600F090E000E034FFF090E003E024FFF0906F
:10023600E002E034FFF07B017AE079007532007568
:1002460033017F047E60121EEFE4F50A0209837B08
:10025600017AE079007535007536017F047E6012FB
:100266001F3C90E001E004F0700690E000E004F02E
:1002760090E003E004F0700690E002E004F07B01F9
:100286007AE079007F037E001217C8E4F50A0209B6
:100296008312142E7B017AE07900E4F532F5337F80
:1002A600047E20121EEFE4F50A0209837B017AE040
:1002B6007900E4F535F5367F047E20121F3C7B017C
:1002C6007AE079007F017E001217C8E4F50A020978
:1002D6008312142EE526AE257802C333CE33CED84C
:1002E600F92400F524EE3404F5237B017AE0790045
:1002F600E527C313FEE5281324FFF533EE34FFF597
:1003060032AF24AE23121EEFE4F50A02098312145B
:100316002EE526AE257803C333CE33CED8F9240096
:10032600F524EE3410F5237B017AE07900E527C346
:1003360013FEE5281324FFF533EE34FFF532AF2420
:10034600AE23121EEFE4F50A02098312142E90E082
:1003560000E4F0A304F0752700F528FB7AE07900A5
:10036600E4F532F5337F027E20121EEFE4F50A0231
:10037600098312142E8525238526247B017AE079AC
:1003860000E527C313FEE5281324FFF533EE34FFFB
:10039600F532AF24AE23121EEFE4F50A02098312EA
:1003A600142E8525238526247B017AE07900E5270E
:1003B600C313FEE5281324FFF536EE34FFF535AFFB
:1003C60024AE23121F3C1217B8E4F50A0209831261
:1003D600142E8525238526247B017AE0790085273E
:1003E60044852845AF24AE23121B7E8F22EF60037F
:1003F60002097CE4F50A02098312142E8525238559
:1004060026247B017AE07900852744852845AF2498
:10041600AE23121FCF8F22EF600302097C1217B89A
:10042600E4F50A02098312142E852523852624C3A2
:10043600E5249420E52394004013E5242528FFE5D0
:10044600233527FED3EF94FFEE941F4006750A016D
:10045600E4F5217B017AE07900852744852845AFBC
:1004660024AE23121B7E8F22EF600302097CE4F583
:100476000A02098312142E852523852624C3E52422
:100486009420E52394004013E5242528FFE5233531
:1004960027FED3EF94FFEE941F4006750A01E4F59C
:1004A600217B017AE07900852744852845AF24AE73
:1004B60023121FCF8F22EF600302097C1217B8E4C4
:1004C600F50A02098312142E7B017AE0790075443D
:1004D600007545087F087E00121FCFEF60047F017C
:1004E60080027F008F22EF600302097C7B017AE0A5
:1004F60079007F077E001217C8E4F50A0209831205
:10050600142EE490E000F0A3F0A3F0A3F07B017AB0
:10051600E07900F5447545047F0CFE121B7E8F22A0
:10052600EF600302097CE4F50A02098312142E9097
:10053600E000E0F50DA3E0F50EA3E0F516A3E0F567
:1005460017A3E0FEA3E0750B00F50CEE750F00F5A2
:1005560010E526F518E525F513E5106402450F703C
:100566003BAB0C753201F5337534007535187D08D3
:10057600FCFFFE1215EFAB0CE4F532753301753452
:10058600E0753506AD17AC16AF0EAE0D1215EF7D44
:100596000CAF13121E44E4F50A020983E510450F59
:1005A6006008E5106401450F701FAB0C85103275AD
:1005B60033017534E0753506AD17AC16AF0EAE0DCA
:1005C6001215EFE4F50A02098302098812142E9027
:1005D600E000E0F50DA3E0F50EA3E0F516A3E0F5C7
:1005E60017A3E0FEA3E0750B00F50CEE750F00F502
:1005F60010AB0C8510327533017534E0753506ADD8
:1006060017AC16AF0EAE0D120FBDE4F50A02098344
:1006160012142EE52824FFFFE52734FFFE7B017A1E
:10062600E179001217C8E4F50A02098312142E12A2
:10063600216BE4F50A02098312142EAF26121D3F20
:10064600E4F50A02098312142E85261DE4F50A0232
:10065600098312142E90E000E0FEA3E0752900F550
:100666002AEEF519AD2AAF19121E44E4F50A02095D
:100676008312142EE4F514F51585251A85261BF527
:100686000A752101D3E51B9400E51A940050030274
:10069600098EE50A600302098EE51B151B7002151B
:1006A6001AE51525E0FFE51433FE74002FF5827474
:1006B600E03EF583E0F52BA3E0F52C6430452B6096
:1006C60003020775E51525E0FFE51433FE74022FD6
:1006D600F58274E03EF583E0F50DA3E0F50E7404B3
:1006E6002FF58274E03EF583E0F516A3E0F5177466
:1006F600062FF58274E03EF583E0FEA3E0750B005D
:10070600F50CEEF510750F00AB0CF532E51525E08E
:10071600FFE51433FE74082FF974E03E753301F5D6
:10072600348935AD17AC16AF0EAE0D1215EFE517C1
:1007360054077010E517AE167803CEC313CE13D840
:10074600F9FF8013E517AE167803CEC313CE13D880
:10075600F92401FFE43EFE8E118F12E51220E0031C
:10076600020827E5122401FFE43511FE020827E5F9
:100776002C6434452B6003020847E51525E0FFE5A8
:100786001433FE74022FF58274E03EF583E0F50D16
:10079600A3E0F50E74042FF58274E03EF583E0F5D0
:1007A60016A3E0F51774062FF58274E03EF583E094
:1007B600FEA3E0750B00F50CEEF510750F00AB0C03
:1007C600F532E51525E0FFE51433FE74082FF974BC
:1007D600E03E753301F5348935AD17AC16AF0EAE74
:1007E6000D120FBDE51754077010E517AE16780306
:1007F600CEC313CE13D8F9FF8013E517AE167803D0
:10080600CEC313CE13D8F92401FFE43EFE8E118F1A
:1008160012E51220E0028009E5122401FFE43511F9
:10082600FE8E118F12E511C313FEE51213FFE515B7
:100836002404CDE43514CD2FF515ED3EF51402064E
:100846008AE52C6432452B700E12216B0515E515D1
:100856007002051402068AE52C6433452B701BE5ED
:100866001525E0FFE51433FE74022FF58274E03E91
:10087600F583A3E0FF121D3F8047E52C6435452B29
:100886007019E51525E0FFE51433FE74022FF58295
:1008960074E03EF583A3E0F51D8026E52C6436451D
:1008A6002B702CE51525E0FFE51433FE74022FF5B9
:1008B6008274E03EF583E0FCA3E0FDECFFED121E42
:1008C6004474022515F515E43514F51402068A75E7
:1008D6000A01E4F52102068A12142E745590E000EE
:1008E600F0A3F0A3F0A3F0A3F0A3F0A3F0A3F0A36A
:1008F600F0A3F0A3F0A3F01217B8E4F50A020983F7
:1009060012142E85261FE4F50A02098312142E8579
:1009160025238526247B017AE079008527328528E0
:1009260033AF24AE2312133D8F22EF600302097CFE
:10093600E4F50A02098312142E8525238526247BD5
:10094600017AE07900852732852833AF24AE231259
:100956001BF58F22EF6002801D1217B8E4F50A809E
:100966001C12142E852523852624AF24AE231218A7
:100976006E8F22EF6004F50A800BE4F50A752101FB
:100986008006750A01E4F521E521B40102D322C3EC
:0309960022C32257
:0B1DE2000263000002660008016201BD
:0D004600120E4090E605E054FDF0D20022BD
:0C22AF00E51CB40106E4F51C12122C2200
:0422F100C283D322AF
:101A3E00D283E4FFFE0FBF00010EBE03F8BFE8F530
:101A4E00D2B0E4FEFF0FBF00010EBE03F8BFE8F5F3
:101A5E00C2B0E4FEFF0FBF00010EBE03F8BFE8F5F3
:101A6E0000000090E6047480F00000007402F000A4
:101A7E000000E4F00000007480F00000007404F038
:101A8E00000000E4F00000007480F0000000740616
:101A9E00F0000000E4F00000007480F0000000741C
:0C1AAE0008F0000000E4F0000000D3226B
:0222F700D322F0
:0822E10090E6BAE0F568D32293
:1022690090E740E568F0E490E68AF090E68B04F0A8
:02227900D3226E
:0822E90090E6BAE0F565D3228E
:10227B0090E740E565F0E490E68AF090E68B04F099
:02228B00D3225C
:0622F900D322D322D32200
:0922D0001200564002D322C32281
:10222300C0E0C083C082D2015391EF90E65D740198
:08223300F0D082D083D0E0322C
:10225300C0E0C083C0825391EF90E65D7404F0D078
:0622630082D083D0E032BE
:101F8600C0E0C083C082C0D0E56445637005756259
:101F960001800DE564B4FF08E563B4FF03756200D4
:101FA600E562B4010A0564E564700C05638008E522
:101FB600641564700215635391EF90E65D7402F048
:091FC600D0D0D082D083D0E032EB
:10208600C0E0C083C082855C58855D5985598285CC
:102096005883A37402F085545A85555B855B828507
:1020A6005A83A37407F05391EF90E65D7410F0D055
:0620B60082D083D0E0326D
:10223B00C0E0C083C082D2035391EF90E65D740877
:08224B00F0D082D083D0E03214
:101CD900C0E0C083C08290E680E030E7498554586F
:101CE9008555597566007567F0855982855883A3AE
:101CF9007402F0855C5A855D5B855B82855A83A396
:101D09007407F000000090E6207402F000000090D3
:101D1900E621E4F000000090E6307498F00000003D
:101D290090E6317464F05391EF90E65D7420F0D041
:061D390082D083D0E032ED
:0116FF0032B8
:1022FF0032323232323232323232323232323232AF
:10230F00323232323232323232323232323232329E
:03231F0032323225
:101B000012010002000000402853302000000102B2
:101B100000010A060002000000400100090219004D
:101B200001010080FA0904000001FF000000070520
:101B30008202000200000902190001010080FA0976
:101B400004000001FF0000000705820240000000C1
:101B50000403090414034600610069007200630075
:101B6000680069006C0064001403470045004E00E3
:0E1B70004400450058002000490049000000D4
:03004300021700A1
:0300530002170091
:1017000002222300021F86000222530002223B0015
:1017100002208600021CD9000216FF000222FF00F0
:10172000022300000223010002230200022303001F
:1017300002230400022305000223060002230700FF
:10174000022308000222FF000223090002230A00EC
:1017500002230B0002230C0002230D0002230E00C3
:1017600002230F000222FF000222FF000222FF00DC
:10177000022310000223110002231200022313008F
:10178000022314000223150002231600022317006F
:10179000022318000223190002231A0002231B004F
:1017A00002231C0002231D0002231E0002231F002F
:0817B0000223200002232100A6
:1020E90090E682E030E004E020E60B90E682E03002
:1020F900E119E030E71590E680E04401F07F147EB5
:0C21090000121ABA90E680E054FEF022AA
:1016CC0030040990E680E0440AF0800790E680E060
:1016DC004408F07FDC7E05121ABA90E65D74FFF0C8
:0F16EC0090E65FF05391EF90E680E054F7F02224
:10214000A907AE60AF618F828E83A3E0640370172E
:10215000AD0119ED7001228F828E83E07C002FFD8E
:0B216000EC3EFEAF0580DFE4FEFF2236
:1021BB0090E682E044C0F090E681F0438701000096
:0421CB0000000022EE
:101ABA008E218F2290E600E054187012E52224014C
:101ACA00FFE43521C313F521EF13F522801590E6C3
:101ADA0000E05418FFBF100BE52225E0F522E521AE
:101AEA0033F521E5221522AE21700215214E60053B
:061AFA001221CF80EE2254
:1021CF007400F58690FDA57C05A3E582458370F923
:0121DF0022DD
:030000000219B230
:0C19B200787FE4F6D8FD7581680219F911
:10099900BB010689828A83E0225002E722BBFE025C
:1009A900E32289828A83E49322BB010CE58229F53B
:1009B90082E5833AF583E0225006E92582F8E622AA
:1009C900BBFE06E92582F8E222E58229F582E58364
:1009D9003AF583E49322BB010689828A83F0225087
:1009E90002F722BBFE01F322F8BB010DE58229F5CE
:1009F90082E5833AF583E8F0225006E92582C8F6B4
:100A090022BBFE05E92582C8F222BB010A89828A36
:100A190083E0F5F0A3E022500687F009E71922BB2D
:100A2900FE07E3F5F009E3192289828A83E493F545
:100A3900F074019322BB0110E58229F582E5833A1E
:100A4900F583E0F5F0A3E0225009E92582F886F064
:100A590008E622BBFE0AE92582F8E2F5F008E2225F
:100A6900E5832AF583E993F5F0A3E99322BB010A0B
:100A790089828A83F0E5F0A3F0225006F709A7F0EE
:100A89001922BBFE06F3E5F009F31922E88FF0A459
:100A9900CC8BF0A42CFCE98EF0A42CFC8AF0EDA4FC
:100AA9002CFCEA8EF0A4CDA8F08BF0A42DCC38252F
:100AB900F0FDE98FF0A42CCD35F0FCEB8EF0A4FE0F
:100AC900A9F0EB8FF0A4CFC5F02ECD39FEE43CFCA4
:100AD900EAA42DCE35F0FDE43CFC2275F0087582C0
:100AE90000EF2FFFEE33FECD33CDCC33CCC58233AF
:100AF900C5829BED9AEC99E58298400CF582EE9BB4
:100B0900FEED9AFDEC99FC0FD5F0D6E4CEFBE4CDD1
:100B1900FAE4CCF9A88222B800C1B90059BA002D6B
:100B2900EC8BF084CFCECDFCE5F0CBF97818EF2F24
:100B3900FFEE33FEED33FDEC33FCEB33FB10D70353
:100B4900994004EB99FB0FD8E5E4F9FA227818EFFC
:100B59002FFFEE33FEED33FDEC33FCC933C910D75B
:100B6900059BE99A4007EC9BFCE99AF90FD8E0E468
:100B7900C9FAE4CCFB2275F010EF2FFFEE33FEED3E
:100B890033FDCC33CCC833C810D7079BEC9AE8990E
:100B9900400AED9BFDEC9AFCE899F80FD5F0DAE4F0
:100BA900CDFBE4CCFAE4C8F922EB9FF5F0EA9E42CA
:100BB900F0E99D42F0E89C45F0227401FF3395E08D
:100BC900FEFDFC080808E6CF2FF618E6CE3EF6181B
:100BD900E6CD3DF618E6CC3CF622D083D082F8E487
:100BE900937012740193700DA3A393F8740193F594
:100BF900828883E4737402936860EFA3A3A380DF00
:1019BE00021916E493A3F8E493A34003F68001F210
:1019CE0008DFF48029E493A3F85407240CC8C3332A
:1019DE00C4540F4420C8834004F456800146F6DFF9
:1019EE00E4800B0102040810204080901D97E47ED5
:1019FE00019360BCA3FF543F30E509541FFEE493EE
:101A0E00A360010ECF54C025E060A840B8E493A3B4
:101A1E00FAE493A3F8E493A3C8C582C8CAC583CADF
:101A2E00F0A3C8C582C8CAC583CADFE9DEE780BE97
:011DED0000F5
:00000001FF
